:100000005555AAAA051400000000000000000000D9
:1000100029880000000000000000000059D227914C
:1000200000021000E1070000890200009F020000AA
:10003000B5020000CB020000E10200000000000059
:100040000000000000000000000000007D2B000008
:10005000812B000000000000F7020000832B00004D
:10006000852B0000232900002B2C0000852900008F
:100070009D2B0000D12B0000D52B0000E32B0000AE
:10008000F52B0000F72B0000F92B0000172C0000C7
:10009000192C00002D2C00000000000000000000C2
:1000A0002F2C0000312C0000000000000000000098
:1000B00000000000332C0000352C000099290000BE
:1000C000372C0000452C0000090300005D2C0000C7
:1000D0005F2C000000000000000000000000000095
:1000E0000514000000F002F800F05AF80AA090E8A9
:1000F000000C82448344AAF10107DA4501D100F0E3
:100100004FF8AFF2090EBAE80F0013F0010F18BF55
:10011000FB1A43F00103184788450100A845010078
:100120000A444FF0000C10F8013B13F0070408BF1D
:1001300010F8014B1D1108BF10F8015B641E05D0BB
:1001400010F8016B641E01F8016BF9D113F0080F70
:100150001EBF10F8014BAD1C0C1B09D16D1E58BF02
:1001600001F801CBFAD505E014F8016B01F8016B39
:100170006D1EF9D59142D6D37047000000230024AC
:1001800000250026103A28BF78C1FBD8520728BFA7
:1001900030C148BF0B6070471FB51FBD10B510BD03
:1001A000DFF80CD0FFF7F8FF02F0A6FE13F0D2FF45
:1001B0000002100003B4FFF7F1FF03BC13F0D2FFFD
:1001C0000A484FF0FF0101704FF0000080F31188E2
:1001D0004FF0000080F3098805484FF002010170DC
:1001E00062B604484FF080510160704722ED00E094
:1001F0000002100004ED00E002484FF08051016061
:100200007047000004ED00E04FF0200080F31188FB
:10021000EFF3098098B112480068124909688842D2
:1002200017D0EFF309800E49096820E9F00F8860C4
:1002300000B50B48006800F0F2F85DF804EB0848E0
:1002400008490A68026000688168B1E8F00F81F32C
:1002500009884EF0040E4FF0000080F311887047BB
:100260000402100008021000EFF311804FF020018B
:1002700081F31188704700004FF0000080F311886F
:100280007047000062B6704772B6704740BA704758
:10029000C0BA7047401E0028FCDC704700BE7047A3
:1002A00040BA7047C0BA70471EF0040F0CBFEFF39E
:1002B0000880EFF309804FF0010102F0CBBB1EF084
:1002C000040F0CBFEFF30880EFF309804FF0020139
:1002D00002F0C0BB1EF0040F0CBFEFF30880EFF379
:1002E00009804FF0030102F0B5BB1EF0040F0CBFF4
:1002F000EFF30880EFF309804FF0040102F0AABB8E
:100300001EF0040F0CBFEFF30880EFF309804FF0ED
:10031000050102F09FBB4FF0000000B503F0FBFAAF
:100320005DF804EBFFF770BF1EF0040F0CBFEFF396
:100330000880EFF309804FF0000102F08BBB000052
:10034000194910B5012008701849002008601849A3
:100350000860184908601849086000F0A7F900F023
:1003600039F900F063F8002010BD10B5114800F015
:1003700018F90F4908600D490968884207D00A48F2
:100380000078022803D1BDE81040FFF735BF10BD4B
:1003900010B5FFF7EAFF044902200870FFF710FFCD
:1003A0004FF0FF3010BD00000002100004021000EA
:1003B000080210000C0210001002100070B50D466B
:1003C0000446C1698068CC2213F0C7FDE169A068CA
:1003D000084440384FF08071C163216A8163002175
:1003E00041630163C1628162C0E908514FF00B3182
:1003F000C1614FF00A3181614FF0093141614FF025
:10040000083101614FF00731C1604FF00631816062
:100410004FF0053141604FF00431016070BD8269D9
:100420008168914201D802F018BE704710B54FF4B0
:10043000B471464813F0BBFD002010BD70B50546F1
:1004400000EBC501414800EB8104FFF70DFF0646B4
:10045000207828B13046FFF70FFF6FF0010070BD24
:100460000320207000206560206204F11C0000F071
:1004700071F83046FFF700FF002070BD2DE9F04114
:100480000F463249002500EBC00001EB80042E46E8
:10049000FFF7EAFE8046206A3843206204F11C0020
:1004A000074600F07EF80CE0216A026C114203D08E
:1004B00000F054F9012600E06D1C2946384600F092
:1004C00066F80028F0D1012E01D1FFF74EFF40461B
:1004D000FFF7D2FE0020BDE8F08170B50D461B4944
:1004E00000EBC00001EB8004FFF7BEFE216AA943C8
:1004F0002162FFF7C1FE002070BD2DE9F0410D46DD
:10050000124900EBC0001E46904601EB8004FFF745
:10051000ABFE07460E4800680564216A294203D1F4
:1005200004F11C0100F02CF93846FFF7A5FEFFF797
:100530009BFE216A29403160B8F1010F02D1216A86
:10054000A9432162FFF798FE0020C4E79805100038
:1005500004021000002101600846704730B50A68A7
:1005600012B10B46C46B09E000220860C0E9032108
:100570000BE000BF02F10C03D26812B1D56BA542AB
:10058000F8DC1A68C0E903211860002030BD00685B
:10059000002201E0C068521C8A4201D00028F9D133
:1005A00070470068704702690AB1116831B96FF08D
:1005B0000400704701F10C02C96839B18142F9D1D8
:1005C000C968116000210161084670476FF003009F
:1005D0007047000010B54FF4C871324813F0E7FCC3
:1005E000002010BD2DE9F041884605462D4900EB5D
:1005F0008500174601EBC004FFF736FE064620785B
:1006000030B13046FFF738FE6FF00100BDE8F081F1
:1006100002202070E7611422414604F10800656061
:1006200013F056FC0020206204F12400FFF792FF33
:100630003046FFF721FE0020E8E770B5194900EBCE
:10064000800001EBC004FFF70FFE0546D4E9070167
:10065000814205DB144804F12401006800F090F8A1
:10066000206A401C20622846FFF706FE002070BD6D
:1006700070B50C4900EB800001EBC004FFF7F4FDFE
:100680000546206A08B1401E206204F12400FFF7ED
:1006900088FF10B1606A00F011F82846FFF7ECFD02
:1006A000002070BD000710000402100010B54FF4C8
:1006B0002A71404813F07BFC002010BD10B50446A1
:1006C00090F8380002280BD02046FFF76CFF02207C
:1006D00084F8380038492046FFF740FFFFF745FE11
:1006E000002010BD2DE9F05F8B460646314900EB36
:1006F00006109046DDE90AA911F820201D461AB11E
:100700006FF00100BDE8F09F01EB8004FFF7ACFD46
:10071000074601202070C4E90165C4E90585C4E9E4
:1007200007A91422594604F1240013F0D1FB00203C
:1007300084F8370084F838006169E0602061C4E91A
:100740000F1020460C99FFF739FEA0602046FFF7F6
:10075000B5FF3846FFF790FD0020D3E710B50446FB
:1007600090F83800022809D02046FFF71CFF02202D
:1007700084F8380010492046FFF7F0FE002010BD35
:1007800070B5044690F838000D4602280BD120467B
:10079000FFF709FF032084F8380029462046FFF7B9
:1007A000DDFEFFF7E2FD002070BD044800684068F0
:1007B00070470000900810000C02100004021000A6
:1007C000F0B58446002004460C4F14E05CF8246029
:1007D0000323DD0046FA05F280EA026008250028BE
:1007E00002DA87EA400000E040006D1E002DF6DCD2
:1007F0005B1EEED5641C8C42E8DBF0BD1B00008064
:100800001248804712480047FEE7FEE7FEE7FEE792
:10081000FEE7FEE7FEE7FEE7FEE7FEE7FEE7FEE7B0
:10082000FEE7FEE7FEE7FEE7FEE7FEE7FEE7FEE7A0
:10083000FEE7FEE7FEE7FEE7FEE7FEE7FEE7FEE790
:10084000FEE7FEE7FEE7FEE7FEE70000890800009E
:10085000C50000001E4800684FF00051002891F8C4
:10086000210000F01C000DD0042805D0082805D078
:100870000C2805D096200CE011200AE0252008E085
:100880004B2006E0042809D0082809D00C2809D0FC
:100890007020401E01F82C0F087070470C20F8E7FC
:1008A0001B20F6E73720F4E770470A4993200870C9
:1008B000D0E708490B200870CCE70548006818B954
:1008C00004480078932801D0002070470120704729
:1008D000340400222100002070B5042000F054F9F7
:1008E000052000F051F9062000F04EF9072000F035
:1008F0004BF9082000F048F9182000F045F91920BC
:1009000000F042F91A2000F03FF9B14900200860D8
:10091000AF4A40321060AE4B183B1860AC4B083306
:100920001860AC4CE071AA4B143B1860A84B0C3318
:1009300018602072A64B103B1860A54B103318604E
:100940006072A34B0C3B1860A14B14331860A0726B
:100950009F4B083B18609E4B18331860E0729C4B0D
:1009600028331860A0731E1D3060E073331D1860BB
:10097000207401250D60156025700621042000F00B
:100980001BF90621052000F017F90621084600F0A2
:1009900013F90621072000F00FF90621082000F0C6
:1009A0000BF90621182000F007F90621192000F0A4
:1009B00003F904211A2000F0FFF8042000F0F0F8F9
:1009C000052000F0EDF8062000F0EAF8072000F01E
:1009D000E7F8082000F0E4F8182000F0E1F819200A
:1009E00000F0DEF81A2000F0DBF8042000F0C0F878
:1009F000052000F0BDF8062000F0BAF8072000F04E
:100A0000B7F8082000F0B4F8182000F0B1F81A2068
:100A100000F0AEF8FF20E070356070BD00EB8000A4
:100A20006B494000002218390A606A4A521F107050
:100A30000120086070476649002018390860704737
:100A400000EB800062494000002210390A60614AD0
:100A5000D21E10700120086070475D4900201039D7
:100A60000860704700EB80005949400000220C39B3
:100A70000A60584A921E107001200860704754495D
:100A800000200C3908607047514A10B528321468AC
:100A90000123D10664B10024146081F8350091F877
:100AA000420000BF91F842408442FBD0136010BD69
:100AB00081F83500FAE700EBC00101EB00106FF0A0
:100AC000030101EB800010B54349444C0978B0FBA9
:100AD000F1F0401E80B2FF280CD9010A2170494272
:100AE00000EB01206070FF20FFF7CEFF2078401E52
:100AF000207010BD002121706170BDE81040C0B2AF
:100B0000C2E7334828300168002909D0002101607C
:100B1000C10691F8420000BF91F842208242FBD00A
:100B2000704710B52D4C2178607851EA000207D04B
:100B300051B1FF20FFF7A8FF2078401E207010BDA4
:100B4000BDE8104009F089BFFFF79EFF00206070EC
:100B500010BD10B5214C0023608830B11920FFF77B
:100B60005DFF6088401E608000E00123184610BDD4
:100B700000F01F020121914040094FF0E02202EBFA
:100B80008000C0F80011704700F01F020121914061
:100B900040094FF0E02202EB8000C0F8801170475E
:100BA00000F01F020121914040094FF0E02202EBCA
:100BB0008000C0F8801270474907090E002803DA48
:100BC00000F00F00064A00E0064A8154704700001A
:100BD0001C050022330000209302100014021000B4
:100BE00014ED00E000E400E049480121016000212B
:100BF0000160704747480121016000210160704792
:100C000010B5002000F06BF8FFF7F4FFFFF7ECFFE2
:100C10004149002008604149A0200870002000F0F0
:100C20006AF8BDE81040002000F04DB83A480121B4
:100C30001C38016000210160704710B5002000F0F1
:100C40004EF8334901200860002000F054F8BDE858
:100C50001040002000F037B82D4901201C390860F1
:100C600070472F4800782E49491C0978401A00F037
:100C70003F0070472B4902780A7042784A708278A8
:100C80008A70C278CA7002790A7142794A7182798F
:100C90008A71C079C87170472348006841788278AA
:100CA0004FF00050437A0374204B1B784374438900
:100CB0001B0A83744389C37401754275C1798175B8
:100CC000017AC175704700F01F020121914040096F
:100CD0004FF0E02202EB8000C0F80011704700F0F6
:100CE0001F020121914040094FF0E02202EB8000F9
:100CF000C0F88011704700F01F02012191404009A7
:100D00004FF0E02202EB8000C0F880127047000034
:100D10005C840022A00000227C04002200E400E0A9
:100D20002004002000020020380210008802100079
:100D300010B5092000F054F80A2000F051F80920FD
:100D400000F05AF80A2000F057F80521092000F0B9
:100D50005FF805210A2000F05BF833487F214170DD
:100D60007C2282700171002100F848192F490A681D
:100D70004FF0010192F8C830DC070AD09C0708D573
:100D800090F84A40C3F3820301FA03F39C4380F8CE
:100D90004A4092F81131DC0721D0C3F34203012B02
:100DA00003D0234B4FF480641C604830837802F2F8
:100DB00011121478C4F3420401FA04F4A3438370BB
:100DC00003791478C4F3420401FA04F42343037151
:100DD00003781278C2F3420291400B43037010BDB6
:100DE00000F01F020121914040094FF0E02202EB88
:100DF0008000C0F88011704700F01F02012191406F
:100E000040094FF0E02202EB8000C0F880127047EA
:100E10004907090E002803DA00F00F00054A00E038
:100E2000054A815470470000480000203802100035
:100E300000E100E014ED00E000E400E0704710B5D0
:100E4000044602462A21002000F066F9221D2B21CB
:100E5000002000F061F904F108022C21002000F0CC
:100E60005BF904F10C020F21032000F055F9206812
:100E7000000E032825D304F114022D21002000F0D8
:100E80004BF904F110022E21002000F045F904F185
:100E90001C022F21002000F03FF904F1180230213C
:100EA000002000F039F904F124023121002000F083
:100EB00033F904F120023221BDE81040002000F097
:100EC0002BB910BD10B5BE4C0720607000202070FB
:100ED00044F2C000608000BF00BF00BF4CF2C00001
:100EE000608000BF00BF00BF4CF2E00060800920BE
:100EF000FFF7D0F944F2E000608000BF00BF00BF00
:100F00004FF48040608010BDF0B500252E464FF0B4
:100F10000054E02717E000BF883401F03F01607003
:100F20002170678000BF00BF00BFD4F808C043F83D
:100F300025C06680883C00BF6D1C521E491C3F299D
:100F400001D9401CC0B2002AE6DCF0BD2DE9F04713
:100F50009B4D0026AD1C04462E80DFF868920121CF
:100F6000C9F880104FF4C058A5F8008000BF00BF3A
:100F700000BF00BF00BF4FF480572F803520FFF720
:100F800089F92E80FFF79EFF00F0DCF85C2000F06E
:100F9000EAF82346012208210020FFF7B5FF231DB0
:100FA000012209210020FFF7AFFF04F1080301220D
:100FB0000A210020FFF7A8FF04F10C0301220B21F6
:100FC0000020FFF7A1FF04F1100301220C210020F3
:100FD000FFF79AFF04F1140301220D210020FFF70F
:100FE00093FF00F0AFF8FFF76DFF2F8000BF00BF49
:100FF00000BF00BF00BF00BF00BF00BF00BF00BFF9
:10100000A5F8008000BF00BF00BF00BF00BF4FF4C5
:1010100040602880C9F88060BDE8F087F0B54FF0E7
:10102000000C059C0CB14FF0800CC5B200264FF0AF
:101030000057644C28E000BF87F889504FEAC05E33
:10104000BEF1000F01F03F0E4EEA0C0E01DA4EF039
:10105000400E87F888E053F826E0C7F88CE04FF0A0
:10106000010EC4F8B0E04FF0000EC4F8B0E0491C27
:10107000C9B2402902D36D1CEDB20021D4F8C0E002
:10108000BEF1000FFAD1761C9642D5DBF0BD4FF0D1
:10109000005282F88900002309B1802002E0C005D7
:1010A00003D5402082F8880001E082F88830454866
:1010B0000121C0F8AC10C0F8AC3000BFD0F8C010AF
:1010C0000029FBD17047F8B50C4605464FF4F4767D
:1010D00000213046FFF7DBFF0020014600902B4641
:1010E00022463046FFF79AFFF8BDF8B50C46054694
:1010F0004FF4F87600213046FFF7C9FF00214FF486
:10110000FC70FFF7C4FF0020014600902B462246EA
:101110003046FFF783FFF8BD294B587041F080003F
:1011200003F8880927480021B4300160012140F804
:10113000B41900BFD0F8C0100029FBD1D3F890003B
:101140001060704710B51E4C4FF48040A41C2080E6
:101150000420FFF79FF80020208000BF00BF00BFE1
:1011600000BF00BF10BD70B5154C2126A41C268001
:1011700000BF00BF00BF00BF00BF40F021052580B9
:1011800000BF00BF00BF00BF00BF44F22101084301
:1011900020800420FFF77EF8258000BF00BF00BF3D
:1011A00000BF00BF268000BF00BF00BF00BF00BF60
:1011B0000020208000BF00BF00BF00BF00BF70BD87
:1011C0008800002000100022F8B5FF4C00263546AC
:1011D0002670E660266166610120A66100F074FF5A
:1011E0000C2000F071FF032000F06EFF172000F0CC
:1011F0006BFF012000F074FF0C2000F071FF032052
:1012000000F06EFF172000F06BFF01F01AF96A463C
:101210000221EE4801F07DFBED499DF801000870C8
:101220009DF80000532800D004260521012000F07D
:1012300063FF05210C2000F05FFF0621032000F072
:101240005BFF0621172000F057FF012000F030FF60
:10125000032000F02DFF172000F02AFFA570657015
:10126000E5703046F8BD70B5D74B1889C0F38001E2
:10127000C0F34016C0F300247140C0F3C0226140A7
:10128000C0F3803551406940400840EAC1301881C0
:1012900070BD38B50D46009014460421684601F033
:1012A000E3FECC498978C90602D5062D00D1401C41
:1012B0000099E16484F8480038BD2DE9F047C64D37
:1012C0000646C44C286890F83404C00718D06088DB
:1012D00040F080006080FFF7C6FF296800F007003B
:1012E000084490F8350484F83500FFF7BCFF2968FE
:1012F000C0F30210084490F83504800084F83400EC
:101300004FF0000A84F841A028684FF002084FF01F
:10131000E90990F845176174B049042EC1F30E072E
:1013200006D0032E1FD0022E41D0052E5CD082E0C5
:10133000A84A3146A06AFFF7ACFFE06A6065A4F8EE
:101340004270A07880060028286890F8590703DAD0
:1013500020F0060040F0040084F8460084F847803E
:1013600084F8449067E09B4A3146A06AFFF791FFFA
:10137000E06A606597480421283001F075FE9749BE
:1013800001EB8000C0F30E00A4F84200A0788006B4
:101390000028286890F8590703DA20F0060040F08A
:1013A000040084F8460084F84780ED2019E0894A5B
:1013B0003146A06AFFF76DFFE06A6065A4F84270ED
:1013C000A07880060028286890F8590703DA20F0F2
:1013D000060040F0040084F84600042084F847002A
:1013E000E52084F8440026E0A178890623D500F2A0
:1013F000C930283401782174C178A1744178A1756D
:101400008078E07501206076724A31462068FFF7E7
:1014100040FF7248F830C0F30E006083286890F8EF
:10142000590720F0060040F00200A07784F81F80E2
:1014300084F81C90283C286890F80A17C907A178FE
:101440004FEA81711CD000291CDB90F80907C00706
:101450000CD00021012002F094FB14F8450F20F07D
:101460000300801C207024F80FAC14E00121084612
:1014700002F087FB14F8450F40F0030020700AE0EB
:10148000002904DA90F86C0720F0030001E090F8DE
:101490006C0784F845004C484670BDE8F0474D485D
:1014A00001F0D9B84C484B49006890F800224A77BF
:1014B00090F80122CA744A88D20504D490F8022216
:1014C00002F00F028A7400F20320027802F03F0259
:1014D0000A75B0F801200A83C2788A76404A0079FA
:1014E000127800F0F00040EA1210C87670472DE93B
:1014F000F047384C0546002084F84100DFF8D890CA
:10150000E12084F84400D9F80020354B2E4E92F8A3
:101510004507607492F80A075FEAC0782046B0F881
:1015200002C0C77C0CF0FF014CF0010004D05FEA60
:101530008C7C01D4012D08D0DFF8A880072D0BD0BA
:10154000062D5ED0082D79D030E0377171710A21F7
:10155000E1746080234812E0377171716080507DC2
:10156000117D471C94F858C007FB01F0BCF1010F36
:1015700003D901FB0CF101FB07F008EB4000C0F3BD
:101580000E00A4F8420092F85307197800F0F0001A
:1015900001F00F010843E07692F8550760770D4A95
:1015A00029460120FFF775FEE06860656188C8077D
:1015B00005D094F8440040F0020084F84400D9F8C3
:1015C000000090F80A270FE0180210000410002015
:1015D00088021000380B100038021000009E012015
:1015E000F6FF010000800120D2074FEA817147D049
:1015F000002947DB062D2FD0082D2DD0012D34D00A
:1016000049E0517D378B107D491C7943484308EBF5
:101610004000C0F30E00A4F8420092F85307197876
:1016200000F0F00001F00F010843E07692F8550752
:101630006077F84A2946A068B4E7FFE7F648C0F3A8
:101640000E00A4F84200FFF72DFFF24A2946206A57
:10165000FFF71FFE606AA8E73634E17B21F0030143
:10166000E173B0F86E07208015E00021012002F040
:1016700088FA14F8450F20F00300801C20700AE05F
:10168000002904DA90F86C0720F0030001E090F8DC
:101690006C0784F845007570BDE8F047DD4800F040
:1016A0006EBF06280ED008280CD001280AD00728C3
:1016B00008D0042805D0032803D0052801D002282B
:1016C00001D1FAE513E770472DE9F84FD34D824673
:1016D000012901D10020A871AC79DFF8489304F109
:1016E0000104CF4EDFF82C83A9F1280713E03068FE
:1016F00090F80A07C00706D098F80200800702D4C5
:1017000059F8242001E057F82420694650469047B4
:10171000012805D0641C092CE9D90020BDE8F88F08
:10172000AC719DF80000F9E72DE9F041054600880D
:1017300000283AD05C222946B64802F014F8FFF798
:1017400034F8B64C0027B64EC4E90670306890F8FD
:101750000A07C0070AD0A878800707D4AD490888CF
:1017600010F0760F02D040F08000088060780028EA
:101770001BD10121A748FFF7A7FF050015D0AA49F3
:1017800001200870306890F8101149070FD590F8C3
:10179000430780070BD401F09AF80220A07001F0F3
:1017A0009AF8192001F0ABF86570BDE8F081277058
:1017B0002846BDE8F04174E70020704782681200B7
:1017C00006D00088C00503D50720087001207047A7
:1017D000002070478268120006D00078C00703D04E
:1017E000062008700120704700207047026A12002E
:1017F00006D00078000703D5082008700120704744
:10180000002070478268120005D00078000602D5DB
:1018100001200870704700207047826A120008D0CB
:10182000C26A32B10078800603D502200870012018
:10183000704700207047826A120006D00078C00608
:1018400003D5052008700120704700207047826A88
:10185000120006D00078800703D50420087001200C
:10186000704700207047C26A32B10078400703D544
:101870000320087001207047002070470020087086
:10188000012070472DE9F04162480421283001F021
:10189000EBFB04465F4804212C3001F0E5FB5F4F71
:1018A0000546DFF870817878604E042801D0022860
:1018B0000CD198F80200800602D5A2005B4902E034
:1018C000620006EB44015A4801F04DFF7878032886
:1018D00001D0022811D198F80200800603D5AA0091
:1018E00006EB840104E005EB44006A0006EB4001CE
:1018F000BDE8F0414F4801F036BF56E730B587B03C
:1019000001208DF800004648424D444C006890F894
:101910000A07C0070AD0A878800707D46078012892
:1019200004D102208DF8000009F0A0F800F05CFD61
:10193000414801903D4802903748E17800EB410072
:1019400003900020E0703448783804906968684655
:10195000884707B030BDF0B5314B47F6FF7201291B
:101960001B6803D01B7D354C00211EE0334C5B7D92
:101970003C3CF9E70D18EDB2314FEE18F6B237F8EE
:1019800015E007F1800C37F816703CF815503CF85C
:101990001660AEEB0505BE1B35442DB224F8115080
:1019A000954200DA2A46491CC9B29942E2D3002086
:1019B00007E000BF34F81010891A24F81010401CFA
:1019C000C0B29842F6D3F0BD2DE9F84F144C012077
:1019D000009020680026154D90F80017B346C907FF
:1019E00047D00C4991F83C7007B901270949DFF845
:1019F0002C8091F83B1091FBF7F10FFA81FA98F8DF
:101A00000110042902D003291CD024E0407D4600A7
:101A10003DE00000380B1000709F012018021000FC
:101A2000380210007841010091021000009E012050
:101A3000C8A6012040A701200080012090A5012018
:101A400054A40120007D04214600FE4801F00CFB57
:101A5000FD4901EB800598F8010002280AD005280D
:101A60000FD0042813D0032811D002280FD0052846
:101A70000DD0D2E12068F44D417D007D0844460040
:101A800005E02068F04D3A2690F801A7F835D8F81F
:101A90000C105145EDDC81B94FF4F871EB4812F0B0
:101AA00086FA98F80100042807D12068407D42009A
:101AB00005EB4001284601F056FEE5490020DFF81D
:101AC0009483D1F80CE04978DFF880932EE000BFD2
:101AD00059F8203035F910C00429634449F8203002
:101AE00001D0032921D1BEF1000F08D1D94B00222A
:101AF000803B23F8102047F6FF7228F81020DFF80B
:101B000054C335F91020ACF1800C3CF910309A42E6
:101B100000DC1A462CF8102035F9102038F9103066
:101B20009A4200DB1A4628F81020401CB042CFDB56
:101B3000C74A0EF101005045D0607CDB0023DFF87E
:101B400018A39046D360042906D0032958D002294F
:101B500072D0052971D060E101210020FFF7FBFE62
:101B6000DFF8E0B2ABF1280B9BF83D0058B12068DC
:101B7000407D4100B54801F0A5FFC8F8100078216C
:101B8000B64812F0F2F90020D8F8103035E000BF66
:101B900039F820207A43A2EB030212B225F8102074
:101BA0009046226892F849C45FEA8C7C20D59BF865
:101BB0003DC0BCF1000F12D0B2F956C4E04502DDC1
:101BC000A8EB0C0207E0B2F95A24904502DAA8EB20
:101BD000020200E00022DFF884C22CF810209F4AA5
:101BE00035F810C032F81020ACEB020225F81020B6
:101BF00059F820204AF82020401CB042C8DB0CE1F4
:101C000000210846FFF7A7FEDFF838B2ABF1280B3A
:101C10009BF83D0058B12068007D41008B4801F0E1
:101C200051FFC8F8140080218D4812F09EF9002061
:101C3000D8F8143037E0EBE038E0D8E039F820206D
:101C40007A43A2EB030212B225F8102090462268D4
:101C500092F849C45FEA8C7C20D59BF83DC0BCF16A
:101C6000000F12D0B2F958C4E04502DDA8EB0C0217
:101C700007E0B2F95C24904502DAA8EB020200E02A
:101C80000022DFF8DCC12CF81020754A35F810C0AE
:101C900032F81020ACEB020225F8102059F8201081
:101CA0004AF82010401CB042C8DBB6E0654828382E
:101CB00090F83D00C8B12068407D4100634801F0C4
:101CC00001FFC8F810002068017D427D490009EB42
:101CD000C20001F0F7FEC8F8140078215F4812F046
:101CE00044F980215E4812F040F9002037E000BF3F
:101CF00039F82010B8F810307943A1EB030109B28C
:101D000025F81010236893F849C45FEA8C7C21D52C
:101D1000DFF830C1ACF1280C9CF83DC0BCF1000FDD
:101D200010D0B3F956C4614502DDA1EB0C0106E009
:101D3000B3F95A34994201DAC91A00E00021474B3D
:101D400023F81010454935F8103031F81010591AA1
:101D500025F8101059F820204AF82020401C21684E
:101D6000497DB0EB410FC3DB2068407D4FEA400066
:101D70003AE000BF39F82010B8F814307943A1EBED
:101D8000030109B225F81010236893F849C45FEAEB
:101D90008C7C22D5DFF8ACC0ACF1280C9CF83DC09F
:101DA000BCF1000F10D0B3F958C4614502DDA1EBBE
:101DB0000C0106E0B3F95C34994201DAC91A00E07B
:101DC0000021274B23F81B10254B35F810C033F8A2
:101DD0001B10ACEB010125F8101059F820204AF82F
:101DE00020200BF1010B401CB042C3DB15E00020AA
:101DF00049461C4A09E000BF31F8203025F8103070
:101E000051F8203042F82030401CB042F4DB04E0AE
:101E10000846FFF746FC0020009000987EE40C493D
:101E200010B54A780120062A1FD18B69054C5B1C2E
:101E3000283C8B6194F85840A34217DA1046FFF70C
:101E400030FC11E0600B1000009E0120849F0120F7
:101E500018021000D4A4012074A1012040AF012079
:101E6000B8AF012064A30120002010BD00228A61C8
:101E700010BD70B5A64909684B7D097D5B1C4B43BD
:101E8000A44991F85840012C1ED9498849051BD511
:101E90000020A14A15E001210AE000BF01FB030672
:101EA00032F8105032F81660491C354422F81050B0
:101EB0008C42F3DC32F9101091FBF4F122F810108F
:101EC000401C9842E7D370BD047570BDF0B587B073
:101ED000FFF7D8FCFFF7A3FF002821D08D4DA8788D
:101EE000400603D4FFF770FD002819D0884F8B4CB3
:101EF000386890F80A07C0070BD0A878800708D484
:101F00006078012805D12079E8746079688008F04C
:101F1000ADFD00217F48FFF7D7FB18B1FFF7C1FBEC
:101F200007B0F0BD7E48002666700670386890F8ED
:101F30000A07C00706D0A878800703D40021084606
:101F400001F01FFE7749A4200873386890F810014B
:101F5000400702D5A67000F0A8FC2078012819D00F
:101F60008DF8006001208DF814006846FFF781FFAE
:101F70006948019000F5F0500290E17800F5B870E2
:101F800000EB41000390E67067480490696868467A
:101F90008847C5E703208DF80000E3E770B55C488B
:101FA0005F4D4FF00004016891F8100142075B4853
:101FB0000AD591F84317890706D48178012908D0FA
:101FC00002290FD0032903D18470FFF797FC2C70EE
:101FD00070BD0221817000F07EFCBDE870403220AF
:101FE00000F08DBC032181704078BDE87040FFF7A0
:101FF00058BBF0B500224D1E11E0531C1F460AE0ED
:1020000030F8126030F81340A64203D920F813606C
:1020100020F812405B1C9BB28B42F1D3BAB2AA42A9
:10202000EBDBF0BD2DE9FF4100252E4629460120BE
:1020300001F0A7FD00246F4600F0E2FC27F8140031
:10204000641CA4B2082CF7D308216846FFF7D1FF1F
:102050005FF0020037F8101019B131446D1C8EB2D8
:10206000ADB2401C80B20628F4D3B6FBF5F004B044
:1020700043E438B50C46054601226946104600F097
:10208000A4FC9DF80000000928709DF8000000F0F5
:102090000300207038BD08B501F0030141EA0011CA
:1020A0008DF8001001226946104600F0FBF808BDCB
:1020B00000F01F020121914040094FF0E02202EBA5
:1020C0008000C0F80011704700F01F02012191400C
:1020D00040094FF0E02202EB8000C0F88011704709
:1020E00000F01F020121914040094FF0E02202EB75
:1020F0008000C0F8801270474907090E002803DAF3
:1021000000F00F00094A00E0094A815470470000BE
:1021100038021000380B1000008001201802100057
:102120009102100000100020F89E012014ED00E044
:1021300000E400E0F0B527260022FF4DFF484FF4F1
:10214000F8315C270C46002303EB000E11F803C0A6
:102150005B1C8EF860C00C2BF6DB2B68002BFCD1CF
:102160008276C77604F10C0103EB000E11F803C070
:102170005B1C8EF860C00C2BF6DB29680029FCD1B3
:10218000511C8176C776921C04F13001B2EB460FE8
:10219000D8DBF0BD2DE9F0479246089E5B1EC6F1E4
:1021A00008010022E54C01F0FF0C1546002189468C
:1021B0009A420BDA00EB0208875C98F8018027FA54
:1021C00006F708FA0CF847EA080703E007D1875C2E
:1021D00027FA06F701EB040888F8607003E001EBCA
:1021E000040888F8609001F1010102F101020C2954
:1021F000DEDBD1490F68002FFCD10AEB0501A17687
:102200005C21E1766D1C022DD0DBBDE8F08718B5AE
:10221000002411235C222146C9480094FFF7BAFF2D
:10222000C74818236222002121300094FFF7B2FF33
:1022300018BD2DE9F0470024DFF8FC82BF49824633
:10224000254626464FF05C0900209C4206DA00EB4A
:10225000010C1AF804708CF8607002E0471887F8D7
:102260006060641C401C0C28EFDB00BFD8F8000045
:102270000028FBD15019887681F81B906D1C032D26
:10228000E2DBC2E7AE4800B516235E2200216C38BF
:10229000FFF7CFFFAA4820236422002140385DF8D1
:1022A00004EBC6E770B50023A44C05E0CD5C1E1915
:1022B0005B1C86F860505BB29342F7DB9E490B686B
:1022C000002BFCD1A07642F01000E07670BD30B556
:1022D0009C4C07220220216801F24271FFF7E2FFC5
:1022E0002168022201F24A710920FFF7DBFF216811
:1022F000062201F24D710B20FFF7D4FF20689249AE
:10230000924D90F85307097800F0F00001F00F01AA
:1023100008432870012229461120FFF7C3FF2168D6
:10232000072201F254711220FFF7BCFF86480122F8
:10233000401E007800F00F01206890F85B0761F301
:102340001F10287029461920FFF7ACFF21680422CE
:1023500001F25C711A20FFF7A5FF7B480222C01C26
:102360002946007828707848401C007868701E2044
:10237000FFF798FF2168062201F262712020FFF723
:1023800091FF71480222001D2946007828706E488E
:10239000801C007868702620FFF784FF21680222E5
:1023A00001F26A712820FFF77DFF2168072201F200
:1023B0006C713C20FFF776FF21680A2201F5F56178
:1023C0004320FFF76FFF21680A2201F2B2714D200E
:1023D000FFF768FF206890F8C0175D48017033214F
:1023E00041740B21817430BD5A4800220260594863
:1023F0001C380260584802610121016182608160DD
:102400000260016002604C49A0F574700B68002BFB
:10241000FCD14A490B7B43F020030B730B7B23F069
:1024200040030B730B7B23F080030B730B7B23F0B8
:1024300020030B73C0F8D823C0F8E023474802708C
:10244000704730B5444800247430046042488030FE
:1024500004604148C4600121C160C460046001603F
:1024600004603B4D2020AD1D287068703349593DF4
:102470000873A42008733048183001680029FCD183
:10248000FFF7B2FFFFF723FFFFF7FCFEFFF7BFFEEA
:10249000FFF750FE3248046085F8344030BD38B54F
:1024A0000546264CC06C00906073010AA173010CB4
:1024B000E173000E2074042269462A20FFF7F2FE21
:1024C000012205F148012E20FFF7ECFE95F84800A7
:1024D000A074686D0090E074010A2175010C6175AB
:1024E000000EA075042269463420FFF7DBFE009839
:1024F000800F84F840001549012208703820FFF74A
:10250000D1FE38BD00EBC00101EB00106FF00301FC
:1025100001EB800010B51349114A0978146890FB4B
:10252000F1F0401EC1B2012358072CB300241460FF
:1025300080F8341018E00000040B00220010002086
:10254000ACF8010038021000F6FF0100940B1000F7
:10255000530000201C0C0022D0030022190210009E
:10256000400500229302100090F8421090F842407B
:102570008C42FBD0136010BD80F83410FAE77CB5B4
:10258000044600208DF804002046FFF788FFFB4832
:10259000B4F842100180217C00F8011C94F844102A
:1025A0004173F74EA07C86F83600F64D286890F807
:1025B00042078DF800006188890503D520F01200DC
:1025C0008DF80000012269460220FFF76BFE04220D
:1025D00004F111010520FFF765FE2968022201F2CE
:1025E0004A710920FFF75EFE022204F116010C2059
:1025F000FFF758FE022204F118010E20FFF752FEE9
:102600002868052204F11A0190F854072077102059
:10261000FFF748FE286890F80907C0070AD0012292
:1026200001A94320FFF73EFE022204F136013E20BD
:10263000FFF738FE012204F145013C20FFF732FE8E
:10264000D14801680129FCD194F84400307323205B
:10265000FFF758FF7CBD7EB50446FFF720FFC74853
:10266000B4F84210018094F8391000F8011C94F875
:1026700044104173C34D286890F842078DF800005C
:102680006188890503D520F012008DF80000012231
:1026900069460220FFF706FE286890F80A17C90766
:1026A00030D0628891072DD4B0F80D17ADF8041022
:1026B000B0F87007ADF80800120609D594F8352077
:1026C0001044ADF8080094F834000844ADF8040054
:1026D000022202A94020FFF7E5FD022201A90920FC
:1026E000FFF7E0FD296891F80907C0071DD0012216
:1026F00001F5F5614320FFF7D5FD022204F1360113
:102700003E2010E090F80907C00707D000208DF8A0
:102710000400012201A94320FFF7C4FD2968022219
:1027200001F24A710920FFF7BDFD022204F13001D8
:102730001A20FFF7B7FD022204F132012220FFF731
:10274000B1FD012204F138010720FFF7ABFD0122A2
:1027500004F13E010820FFF7A5FD012204F13F012D
:102760002020FFF79FFD012204F140012820FFF700
:1027700099FD012204F146011720FFF793FD012284
:1027800004F147011820FFF78DFD28687F490122D9
:1027900090F8540720F0F00008701220FFF782FD37
:1027A00094F84100764EC00708D0286800F2C67140
:1027B00090F8C60786F83600012206E094F83A0041
:1027C00086F83600012204F13A010620FFF76AFD7F
:1027D000012204F145013C20FFF764FD2868012235
:1027E000694690F8430740F008008DF80000032088
:1027F000FFF758FD644801680129FCD194F84400B2
:1028000030732320FFF77EFE7EBD5E49604B0A6871
:1028100092F84D2702700A68B2F850274280096882
:102820001B7801F2547103F00F0311F8012C02F030
:10283000F0021A4302714A89C2804A8A0281CA7B25
:102840008272CA7DC27249780173704710B504461E
:10285000014601220B20FFF725FD0222A11C0E20BC
:10286000FFF720FD0122211D1120FFF71BFD022291
:10287000A11D1C20FFF716FD022204F108012420EF
:10288000FFF710FD012204F10A012120FFF70AFDE4
:10289000012204F10B012920FFF704FD04F10C01D2
:1028A0000122BDE810401320FCE4354908B504209E
:1028B0000873344801226946006890F8430720F005
:1028C00008008DF800000320FFF7ECFC08BD2C4940
:1028D0002020087370472A49C020087370472D488C
:1028E000016800290AD0002101604FF0005191F8E1
:1028F000420000BF91F842208242FBD07047254938
:10290000002240390A601D4A273A107001200860F1
:10291000704770B51C4C1C342368002BFCD11D463D
:1029200003E0C6185B1C86F880508B42F9D32368FD
:10293000002BFCD102E0C45CD4545B1C8B42FAD364
:1029400070BD10B501F002F8FFF7C9FF124800781A
:1029500078B10D48001D01680029FCD10848C078F5
:10296000400602D50D4901200870BDE81040FFF770
:10297000ADBA0B490020087010BD000054000020C3
:102980000010002038021000000B0022940B1000F1
:10299000F6FF010040050022190210001802100085
:1029A0009102100010B500F0D1FF27490020086007
:1029B000BDE81040FFF7F2BA10B500F0C7FFFFF70F
:1029C0008EFFBDE81040FFF7E9BA204B10B59876AE
:1029D000DA761F480468002CFCD1012083F8E0005F
:1029E0001B4818300468002CFCD1002005E0C418F6
:1029F00094F860400C54401C40B29042F7DBBBE7B7
:102A000008B543F6FF70ADF80000022269463E208B
:102A1000FFF748FC0220ADF80000012269463C2087
:102A2000FFF740FC0949E02008734FF41670FDF7EA
:102A300031FC022269466D20FFF7C7FFFFF735FF23
:102A4000BDF8000008BD00000005002200100020B5
:102A5000040B00220446012008F03BF900210F205E
:102A6000226808F04EF901210F20626808F049F948
:102A700002210F20A26808F044F903210F20E26828
:102A800008F03FF90C210F20226908F03AF90E21D5
:102A90000F20626908F035F90F210846A26908F095
:102AA00030F920210F20E26908F02BF93A4802683A
:102AB00021210F2008F025F937481038026822211B
:102AC0000F2008F01EF934480C38026823210F202B
:102AD00008F017F930480838026824210F2008F060
:102AE00010F92D48001D026825210F2008F009F972
:102AF00029483438026826210F2008F002F92648B8
:102B00001438026827210F2008F0FBF8FDF74DFE6E
:102B1000024630210F2008F0F4F8FEE710B5012836
:102B200007D002280ED0032805D0042805D00421A0
:102B300009E0012107E0032105E00021032008F05E
:102B4000C8F8FEE70221BDE81040032008F0C1B834
:102B500010B504460146042008F0BBF8012C00D152
:102B6000FEE710BD0146082008F0B3B80146062074
:102B700008F0AFB810B504460146072008F0A9F8E0
:102B8000012C04D0022C03D0032C02D1FEE7FEE777
:102B9000FEE710BD0320EDE738ED00E000F0D6BE03
:102BA00070477047364810B5016821F00401016094
:102BB00000F0CCFEBDE810400FF00CBF314810B55E
:102BC000007801280DD0032811D1FDF734FF0FF054
:102BD0001EFBFDF7BEFF002809D0BDE8104008F03D
:102BE000B5B9FDF728FFBDE810400FF010BB10BDD0
:102BF00000F0ACBE10B500F0A9FEBDE8104008F032
:102C0000BBBA10B500F0A2FEBDE810404FF0005076
:102C100001F04CB87047704710B500F097FE1A48A5
:102C20000078012803D0BDE8104007F031BFBDE8AF
:102C3000104001F098BD704710B500F087FEBDE868
:102C400010404FF0805001F031B870477047704726
:102C500070477047704710B500F078FEBDE810402F
:102C6000FDF75FBF10B500F071FE0748007801283E
:102C700003D1BDE8104001F052BD10BD7047704750
:102C800010ED00E0AA0210009002100010B55621CD
:102C9000AB4811F06AF9AA48AA49AB4A0180828080
:102CA000AA494180AA4BC380AA4C0481AA4C448102
:102CB000AA4C8481AA4CC481AA4C0482AA4C4482A6
:102CC000AA4C8482AA4CC482AA4C0483AA4C44868F
:102CD000AA4C8486AA4CC486AA4C0487C387418721
:102CE0008287A949A0F84010A8490968B1F8622074
:102CF000A0F84220B1F8C621A0F84420B1F8A120E4
:102D0000A0F84620B1F8F021A0F84820B1F85421ED
:102D1000A0F84A20B1F85221A0F84C209A48B1F806
:102D20004E274280B1F85C27C280B1F86417018158
:102D300010BD97481322984903789648552B02D026
:102D4000027019200CE0914B1B6893F81131DB07DE
:102D500002D08F4A521C127802708D48801C007875
:102D6000087070472DE9F047FF2228218B4811F0A9
:102D7000F4F88A48FEF763F8DFF820920E24012663
:102D8000D9F80410072545F2AA58414503D0D9F8CF
:102D9000081041453BD1D9F80000D9F80820070EAA
:102DA000424506D1032F01D1C0F30136C0F30325FC
:102DB00002E00120FFF7DAFED9F80410414504D102
:102DC00099F8000000F01F0402E00220FFF7CEFE99
:102DD000032F22D1D9F814304146714A48468B421C
:102DE00001D1036900E06F4B1360C3696E4A8B42E7
:102DF00001D1836900E06D4B1360436A6C4A43451F
:102E000002D1D9F8200000E06A48106005E00120F6
:102E1000FFF7ACFE0220FFF7A9FE5C48016891F8BD
:102E2000F007400702D591F8F20704E006F003002E
:102E30002A0740EA126091F8DA16C90711D0B9F8EA
:102E40000C108AB242450CD05149891F0978C52916
:102E500007D120F0F0014E48401F0078000741EAFA
:102E60001060554981F86000012088761120C876ED
:102E70005248017864F304010170BDE8F08770B531
:102E8000FDF713FDFDF7BCFE404C20680078A52837
:102E900002D00120FFF75CFE4FF008500125C0F87A
:102EA00098532068464A90F8271101F001011160FB
:102EB00090F82701111DC0F340000860FDF7BEFF28
:102EC000FDF70AFDFEF780F9042801D1FFF726FE81
:102ED000FDF7E2FEFDF72CFF3748802180F86010F7
:102EE000042181761121C176FFF73CFFFFF721FF16
:102EF00033480C38056070BD10B54FF0005141F2F9
:102F000005404881FFF7BBFFFFF7C0FE2D495F205A
:102F100008602D49002008602D482C49016001F50A
:102F200008602C4908602C4800F0ACFAFDF7ACF9B9
:102F300000F054F8FDF7A6F9FDF72AFA012010BDBC
:102F40000000012000800120D8DD012058D601209A
:102F500056000120009E0120462E0120822E0120D5
:102F6000C82E0120042F01203834012074340120A0
:102F7000E22901201E2A01203A2E012080CE0120C4
:102F80008CCE0120D62901203C25100038021000EB
:102F9000F2FF010094021000930210005C25100063
:102FA0009802100040A5AE029C0210000087930317
:102FB000A002100000366E0100100020200000204A
:102FC00088040022C42E0120840210002413100063
:102FD0006402100068021000242410007FB5FDF781
:102FE000AFF91F4D002400BF05EB441000F11002A3
:102FF000017F4CCACDE90261CDE900230FC8FDF77E
:1030000071FB10B10220FFF7B5FD641C082CEBDB4F
:10301000144D002404EB440005EB8001091D55F814
:10302000200006C9FDF7DEFA10B10220FFF7A2FD6D
:10303000641C082CEEDB0B4D0024603505EBC4004E
:10304000416855F83400FDF7F9F910B10220FFF797
:1030500091FD641C072CF1DB7FBD4068FFF79ABD32
:10306000A0410100A042010070B5034600200246C5
:10307000FE4C09E09D5C521C05F00F0604EB151593
:10308000A65D2D78304428448A42F3DB70BD884227
:1030900000D308467047884200D8084670478842E7
:1030A00000D30846904200D3104670472DE9F04700
:1030B000D0F810C00568046A85FB0C12A1FB04124D
:1030C00042694368914683FB02628269E246A6FB3D
:1030D00002677618D0E9021781FB07C8C069ACFB0C
:1030E00000C81CEB060682FB0A2CA2FB011280FB27
:1030F0000902A0FB0502401884FB0712A1FB031282
:103100000818301A4FEAE071BDE8F0872DE9F04366
:1031100089B00446006800906068019020690290C0
:103120006068039020690490A0690590206906906A
:10313000A0690790E06908900D466846FFF7B6FF62
:103140008046A0680190E068049060690790894615
:103150006846FFF7ABFF064660680190A0680290E2
:1031600020690490E0680590A06907906069089064
:103170000F466846FFF79AFFC5E90401C5E90267F3
:10318000C5E9008909B0BDE8F0832DE9FF4F4FF094
:10319000000A89B09B465746D146D046564655460A
:1031A00054462021684610F002FF0B9810E0099960
:1031B000824431F9102000FB00F102FB01668844D3
:1031C000414302FB009901FB004417440D44401C9D
:1031D0005845ECDD0B99ABEB0100401CCDE9000A32
:1031E000CDE90654CDE90486CDE9027968460A990D
:1031F000FFF78CFF0DB0BDE8F08F9D480068017BA4
:10320000427B41EA0221827BC07B41EA024141EAE2
:10321000006040007047964800680179427941EAB1
:1032200002218279C07941EA024141EA0060704797
:1032300000B5FFF7E2FF4008400000BDF8B50E46BC
:103240000446FFF7F5FF0090FFF7D7FF054604217E
:103250006846FFF709FF04EB40070024DDF8001083
:10326000204623464FF0010C0CFA03F20A4207D025
:103270002A4204D037F8102026F81420641C401C81
:103280005B1C1E2BF0DBF8BDC5E7FCB50E46074600
:10329000FFF7CEFF0190FFF7BEFF0090FFF7BBFFE7
:1032A0000546042101A8FFF7DFFE04460421684615
:1032B000FFF7DAFE00EB440007EB4007002000991F
:1032C000044603464FF0010C0CFA03F20A4207D001
:1032D0002A4204D037F8142026F81020401C641C21
:1032E0005B1C202BF0DBFCBD70B561490020096838
:1032F00001F5F57491F8E8518DB191F8E6214FF0A0
:103300000103D2070DD0002203FA02F6354203D0A2
:10331000A65C03FA06F10843521C062AF4DB4000BF
:1033200070BD91F8E91103FA01F0F8E770B5504962
:103330000020096801F5F57491F8E851002D09D0D5
:1033400091F8E6214FF00103D20704D091F8E9117A
:1033500003FA01F070BD03FA02F6354203D0A65C11
:1033600003FA06F10843521C062AF4DB70BD70B55F
:1033700000223F4C012303FA02F6256895F8E85134
:10338000354203D030F8125021F81250521C062A50
:10339000F1DB70BD00B5FFF730FF40F0010000BD6C
:1033A00039E7344A520102EB810101F1085108600A
:1033B000704701EB8010801001EB41014900182299
:1033C00091FBF2F300EB400000F5F83002FB131123
:1033D000006820F07F40C84000F03F00704701EBDC
:1033E0008010801010B501EB41014900182391FBBA
:1033F000F3F403FB141300EB400000F5F8303F2416
:1034000001689C40A1439A400A430270110A41702E
:10341000110C817010BD821002EB4202114400EBCE
:1034200040004000182290FBF2F301F5F83102FB56
:103430001302086820F07F40D04000F03F00704742
:10344000831003EB43031A4410B500EB4000400027
:10345000182390FBF3F403FB140302F5F8323F2426
:1034600010689C40A0439940014305E038430100A7
:1034700038021000C42E01201170080A5070080C88
:10348000907010BD2DE9F14F7821009810F08FFD5C
:10349000FFF780FF4FEA5008FFF7BDFE4FF0000C2A
:1034A000814666464FF0010A0AFA06F111EA090F51
:1034B0001ED00024012725460AFA0CFB0AFA05F063
:1034C00010EA080F0FD031462846FFF772FFA042DE
:1034D00007D00099009A51F8271041EA0B0142F8F1
:1034E000271004467F1C6D1C272DE7DB0CF1010C17
:1034F000761C202ED8DBBDE8F88F2DE9F04F8346EF
:10350000FD4800242246D0F800A001219AF814506A
:10351000A5F1010621E003200123DFF8E0E303FA2F
:1035200001F99AF8157015E05EF820C01CEA090F41
:103530000FD0A0F1010300FB051C03FB05183BF9AC
:103540001CC03BF91830BCEB030300D55B421C44A4
:10355000521C401C8742E7DC491C8E42DBDC02B96E
:10356000012294FBF2F046E62DE9FF4F85B00021E1
:103570000391029101910091DF49012B0C6894F8AD
:10358000775005F00F0700D10027667D94F87A3058
:10359000C7F1100BB34200D21E460023049301234F
:1035A00081E000BF4FF00009C84603241FE0D34963
:1035B00051F824C0012199401CEA010F04FB053198
:1035C00030F911C0A4F1010101FB053130F91110EE
:1035D000ACEB010106D0002900DA4942DDF818C041
:1035E000A1EB0C01002900DA49428944641CB44271
:1035F000DDDB31469EF815A01FE0C04C54F821C019
:1036000001249C401CEA040F01FB053430F914C06E
:10361000A1F1010404FB053430F91440ACEB0404BF
:1036200006D0002C00DA6442DDF818C0A4EB0C04CC
:10363000002C00DA6442A044491C8A45DDDC049970
:10364000012910D10199B1EB090101D5C1F10001A6
:10365000039C214403910099B1EB080100D5494234
:10366000029C21440291CDE900899EF87B10994289
:1036700016D11168039D79430BFB0511CC1701EBA3
:103680001471091111609168029D79430BFB0511BA
:10369000CC1701EB14710911916000210391029183
:1036A00001215B1C04919449D1F800E09EF814506C
:1036B000691E99423FF776AF5068039978430BFB38
:1036C0000100C11700EB117000115060D068029B1F
:1036D00078430BFB0300C11700EB11700011D060A1
:1036E00009B088E52DE9F04F8349002318460C689E
:1036F00094F84914257DC1F3C001B4F865B4B4F859
:1037000067A4A5EB010924E00322DFF8F0E1DFF86C
:10371000F081667D19E000BF5EF822C0012707FA3C
:1037200001F71CEA070F0ED102FB051738F917C085
:10373000A2F1010707FB051738F91770BCEB070763
:1037400000D57F423B44521CD2B29642E4D8491C79
:10375000C9B28945D8DC6B499B450B6002D2534501
:1037600000D2012047E503E011F8013B00F8013BDE
:10377000521EF9D270477CB50D460446FFF758FD3E
:103780000090FFF748FD0190009804214008009048
:103790006846FFF769FC0646042101A8FFF764FCB0
:1037A0003044820021462846FFF7DDFF7CBD0B46F2
:1037B000514909684A7D097D521C4A43014652001D
:1037C0001846D0E72DE9F04104465C2110F0EFFBEC
:1037D0000025494E25806580306890F8C50700F0C7
:1037E000010045EA40106080316891F84517C90929
:1037F00040EA011060806560FFF7CCFDA060FFF734
:103800000AFD414FE06041497888E08209785A29F1
:1038100004D13E49491C09780844E082306800F22E
:103820004670C27A817A02F03F0241EA0221218386
:103830004178E17490F87A1021740178A17481784C
:103840002175017BA1763149407B083100F0F00001
:10385000097801F00F010843E076FFF745FD20628B
:10386000FFF764FD6062FFF7E3FCA062FFF7D3FCA3
:10387000E062F88820866086306800F24E7090F82A
:10388000731084F8381090F8751084F8391090F897
:10389000761084F83A1010F84C1C84F83B10012183
:1038A00084F83C1084F83D5090F8742084F83E2051
:1038B000027D84F83F20027F84F84020027AA277BC
:1038C000827F84F8452084F8355084F83450028C87
:1038D000E28610F8562CA0F24E70D20718D090F85D
:1038E000F90600F00F0084F85800608840F480600A
:1038F0006080BDE8F0810000380210002424100030
:1039000058D60120700210003C251000EEFF010087
:1039100084F85810EDE710B50446FCF7B5FC012C0F
:103920000BD1FC48006890F81001800705D5FCF722
:10393000C4FF38B1FCF7BDFF04E0FCF7BEFF08B9D7
:10394000FCF7B3FFBDE81040FCF79CBC0020E2E7A9
:10395000F04B10B51A68947E640704D5D28A0468C7
:10396000A2EB040202601A68947EA40703D5128BAE
:103970000C68121B0A600268002A00DA002202604A
:103980001C68E48AA24200DD224602600A68002A1E
:1039900000DA00220A601C68248BA24200DD224665
:1039A0000A601B689B7EDB0702D003680B60026025
:1039B00010BDF0B500252C4609E000BF31F91460B8
:1039C00030F91470F61B964200DD6D1C641C9C429D
:1039D000F4DB012D01D90120F0BD0020F0BD2DE95F
:1039E000F04F9246DDE909B7012547F6F8725642D5
:1039F0009946AC46002416E030F8143031F81480B3
:103A0000A8EB03031BB29A4200DD1A469E4200DA7D
:103A10001E46002B02DA4FF0000502E001DD4FF0F8
:103A2000000C04F10104BC42E6DB55EA0C0306D0AD
:103A3000012D01D02DB108E0BCF1010F05D100220C
:103A400003E0BCF1010F00D1324600252C462B4685
:103A500011E000BF30F8136031F813C01644ACEB2E
:103A6000060636B24E4505DACBF1000C664501DD9F
:103A70003544641C5B1CBB42ECDB95FBF4F10A444F
:103A8000002105E030F8113013442AF81130491CA8
:103A9000B942F7DB67E5F0B5064600200446054667
:103AA000521C059F0AE000BF36F911C09C4504DD99
:103AB000A44502DD64460D460120491C9142F3DB1A
:103AC0003D60F0BD30B50268002513460AE000BF36
:103AD00050F82540944201DD224602E09C4200DA83
:103AE00023466D1C8D42F3DBD01800EBD0704010E4
:103AF00030BD70B5874B1B685C7D1B7D641C5C43CF
:103B0000002307E032F8135030F81360AD1B21F8A2
:103B100013505B1CA342F5DB70BD7F490120086098
:103B200081027E4810F021BA2DE9F0410646154683
:103B30000F46302801D1FFF7F0FF774C206828446A
:103B4000401CB0F5806F01D2206801E001202060A8
:103B5000724908700E542DB10844401C2A4639465B
:103B6000FFF701FE20682844401C2060C1E66C4835
:103B7000002101220170427081707047684800780E
:103B8000704730B5634A126892F80A27D3070BD002
:103B9000D506644A4FF000034FF0010407D5151F06
:103BA0002860012901D1136030BD146030BD5D4D26
:103BB000083D28600129F8D0F5E72DE9F84F554C6C
:103BC00000264FF00057206890F80A07450997F83B
:103BD000510000D101250720FCF72FFDFCF7E5FD82
:103BE000DFF83C81C8F8040020684FF0010490F829
:103BF0000A07C00603D5062087F8510001E087F8C0
:103C0000514000210120FFF7BCFF4FF41670FCF774
:103C100041FB4FF0E02A4FF480594FF0000BCAF8F7
:103C200080924FF040514446D8F80400FCF755FC10
:103C3000DFF8F480012088F80000E8B2FCF712FFFA
:103C4000CAF800916B4600224FF040516068FCF7C3
:103C500054FC4FF040516068FCF73FFC0098C000F6
:103C600000D501262078B04202D1607801280CD11D
:103C700097F85100A6B140EA0522DD20616807F0FF
:103C800040F800BF84F801B0267000210846FFF715
:103C900078FF88F800B00720FCF7EAFC20782AE4D7
:103CA00040EA0521092007F014F8EBE710B50446B7
:103CB0001E484FF480510160FCF7E1FE1848214690
:103CC0004068BDE81040FCF7D9BB70B511480068EA
:103CD00090F8D010CA0716492CD090F8D12002F0E5
:103CE0000F02531C0A2B01D90A2200E0521C00F1DA
:103CF000D20400234D8804E034F81360B5421CD090
:103D00005B1C9342F8DBB0F84E274A80B0F8E820FD
:103D10000A8012E0380210003C021000D625012073
:103D2000AC021000280A00229102100080E100E09D
:103D30003C251000B0F84E274A8090F88023D20727
:103D40001FD090F8812302F00F035A1C0A2A01D9D0
:103D50000A2300E05B1C00F282350024CA8804E0DC
:103D600035F81460B2420BD0641C9C42F8DBB0F80A
:103D70005C27CA80B0F864270A81B0F8AC03888059
:103D800070BDB0F85C27CA80B0F86407088170BDC8
:103D900010B501461822FC48FFF7E5FCBDE81040CD
:103DA0004FF400610120FCF769BB2DE9F04198B0A8
:103DB00080460D4614466846FFF704FDE0074FF0C5
:103DC000010701D0ADF80070A00705D5BDF80000CF
:103DD00040F00800ADF80000600733D5EB4E3068C6
:103DE00090F80A07C0070DD0FFF7E7FE062101286B
:103DF00005D0BDF8020040F00200ADF80200ADF8B9
:103E0000001005E0BDF8000040F00600ADF800002D
:103E1000A00711D1BDF8000040F00100ADF800008E
:103E2000306800F2211041788DF8131001788DF878
:103E30001A1080788DF81E00D5480088800501D5BD
:103E40008DF83D70D349ADF83250ADF81680ADF81D
:103E50003050097840465A2905D1CE49491C097885
:103E60000844ADF81600AFF2D700C74D03244FF455
:103E7000006601906846FDF757FC17AB00223146FB
:103E80000120FCF73AFB31460120FCF726FB28789D
:103E9000002804D0FEF742FE641E002CEADC18B0B5
:103EA000BDE8F0812DE9F041B84A002421461268AE
:103EB000254610F4D17F04D092F8221004254FEA51
:103EC000111110F0050F05D092F8213045F00105D1
:103ED0004FEA1314C00604D592F8210045F00205FC
:103EE00004098C4200DA0C46641C002DD8D0002650
:103EF000A94F05E0F98878882A46FFF756FF761C17
:103F0000A642F7DBCCE72DE9F35FDFF880828B4632
:103F1000D8F80000457D017D90F821006D1C00F06F
:103F20000F074D437F1C4FF488519C4810F03FF819
:103F300000269A4CDFF86092DFF84CA219E000BF2F
:103F4000B9F8061001220098FFF72FFF9449DAF81C
:103F5000040005F058FE9249002007E054F82020A4
:103F600031F910301A4444F82020401CA842F5DBF7
:103F7000761CBE42E4DBD8F8000090F8210000F087
:103F80000F01491C002006E054F8202092FBF1F2BA
:103F90002BF81020401CA842F6DBBDE8FC9F2DE961
:103FA000F34F7A4D87B08B462868182190F821008E
:103FB00000F00F077F1C68460FF0F9FF00266C46E3
:103FC000DFF8D491DFF8C0A1DFF8D88119E000BF95
:103FD000B9F8061002220798FFF7E7FE7149DAF8F0
:103FE0000C00FFF7C4F900204FEA080154F8202024
:103FF00031F910301A4444F82020401C0628F5DB23
:10400000761CBE42E4DB286890F8210000F00F0126
:10401000491C002001222B6802FA00F693F8E831CF
:10402000334205D054F8203093FBF1F32BF81030D5
:10403000401C0628EFDB09B0BDE8F08F2DE9F74FF3
:10404000524D84B09146286830F83B1F0391408858
:104050000290FFF7EDF80090FFF716F901900421A8
:104060006846FFF701F88046042101A8FEF7FCFF2F
:10407000404446002868B10090F8220000F00F0488
:10408000641C46480FF093FF296891F8F002C207BC
:1040900006D0800704D491F8F102044405F068FAD0
:1040A0000027DFF8F8B0AA462FE03B480422059924
:1040B0004088FFF77AFEDAF80010334891F8C51708
:1040C0008568C90704D001692A46284605F0FCFA2C
:1040D000DAF8000090F8F002C10707D0800705D495
:1040E0003149284605F060FA70B12F4D002059463D
:1040F00008E000BF51F8202035F910301A4441F88B
:104100002020401CB042F5DB7F1CA742CDDBDAF853
:104110000010224C504691F8221001F00F0303F1D9
:1041200001034FF000011CE05BF82120056892FBC1
:10413000F3F295F8F0725FEAC77C08D0BF0706D5A6
:1041400095F8F1727F1C5743B5F8F222BA1AB1EB19
:10415000480F01DA039D00E0029D2A4424F8112053
:10416000491CB142E0DB049810F0220F09D0204630
:10417000D9F80010FFF762F82046D9F80410FFF7CD
:1041800084F807B058E700006043100038021000C0
:1041900048021000EEFF01003C251000241310001F
:1041A000A40B10003A2E0120D0A501202DE9F047E4
:1041B0009A46F94B894600210125F84E1C681AE001
:1041C00032F8113030F81170DB1B1FB200230AE007
:1041D000C3EB031C06EB8C0C5B1C3CF811801BB280
:1041E000B8442CF8118094F880C305EB9C1C9C45C6
:1041F000EEDC491C09B2637D8B42E1DC0020E84A19
:1042000019E000BF3AF8103039F81010591A0BB203
:10421000002108E002EB8116491C36F8107009B243
:104220001F4426F8107094F8806305EB96168E42B2
:10423000F0DC401C00B2217D8142E3DCBDE8F08768
:1042400070B5D54DD74E00242868C4EB041100EB9F
:10425000440006EBC111B0F8EF00FFF754FE641CF8
:10426000042CF1DB70BD2DE9FE4F00258246CA4CBF
:104270002F46DFF82883DFF82893012612E000BFDD
:1042800000EB4500C5EB0512B0F8B21308EB820055
:10429000009009EB8510CDE901076A465046FFF70B
:1042A000CDFE6D1C206890F8801306EB9111A94299
:1042B000E6DC90F85011C90710D090F8911109066A
:1042C0000CD5407DB5494200B748FFF74CFA20684D
:1042D000B349007D4200B548FFF745FABDE8FE8FBF
:1042E000FEB5AD4AB24900241268012300F490756E
:1042F00092F88063C98803EB961306E002EB44064C
:10430000B6F8B263B14202D0641CA342F6DCA34209
:1043100019DDC5B192F85001C00703D192F8B00180
:10432000C0070FD09D49C4EB041001EB80013C2273
:10433000A048FFF718FA9A48402200EB84119E48E3
:10434000FFF711FAFEBD002202929A4A00929A4AA1
:1043500001926A46FFF772FEFEBD70B5044600206A
:10436000FCF76BF90320FCF768F98B4D286890F88F
:104370002010490701D424F4006490F85011C907B3
:1043800005D190F8B011C90701D124F0620490F86A
:104390008013490701D424F4B07490F8D010490771
:1043A00001D424F0040490F8E81109B924F01004B1
:1043B00090F8041309B924F4C07490F82002C007DF
:1043C00001D124F4007460060AD53C2279497B4867
:1043D000FFF7C9F97948402277493C30FFF7C3F924
:1043E00077490020401C8842FCD3200502D5204696
:1043F000FFF758FD600701D5FFF722FF14F4907F07
:1044000002D02046FFF72FFF694EE0071BD07088CF
:104410006C49FFF778FD286890F8200000070AD55E
:104420006848FFF76AF868490123684A086001464E
:104430006448FFF799F8286890F84904C00702D04B
:10444000204602F09DFBE00603D570886049FFF727
:10445000A6FD14F0820F0AD02046FFF741FF28681E
:1044600090F84904800702D5204602F0FBFB600665
:1044700006D55249504B4F4A3C315048FFF796FE03
:104480005449012008705449087006F0DDFA0020F4
:10449000FCF7EEF8BDE870400320FCF7E9B8F0B493
:1044A0003D4900223F4C0B68B3F8EF10814214D213
:1044B000B3F8F510814201D803220EE05FF001014C
:1044C00003EB4105B5F8EF50A84201D10A4602E0DE
:1044D0000DD2A1F101028A420DD1C2EB021004EB10
:1044E000C011F0BC4FF4F0623648FFF73CB9491CEC
:1044F0000429E5DBF1E703EB4103324D33F8ED2FFF
:10450000C1EB01115B88801A00029A1A90FBF2F34A
:1045100000204FF4707604EBC11100BF01EB4002A4
:10452000A2F5F06231F91040B2F90020A41A5C4300
:1045300002EB242225F81020401CB042EEDBF0BC38
:1045400070472DE9F04114490025144A0968144EBA
:10455000B1F8B23383421AD291F880339C0901EB4F
:104560004407B7F8B27387420AD9012404EB9313C6
:1045700035E000BF01EB4407B7F8B273B84201D190
:10458000254602E02AD2A4F10105A5423ED191F8C8
:104590005001C0072AD125E038021000562B012017
:1045A000822C0120D6070120462C0120822D0120DB
:1045B0003C251000E22901201E2A0120E4421000BF
:1045C00020A10700560001206C0210009C2410005E
:1045D000D62901204E0210007C021000641CA34268
:1045E000C8DCD4E791F8B001C0074CD0C5EB05108A
:1045F00002EB80013C228448FFF7B5F806EB8511F9
:10460000BDE8F04140228148FFF7ADB801EB440519
:10461000B5F8B033B5F8B253C01A0002EB1A90FBEC
:10462000F3F391F85001C00703D191F8B001C0072E
:1046300029D0754DC4EB0411002002EB810100BFAD
:1046400001EB400231F9107032F93C2CBF1A5F4384
:1046500002EB272225F81020401C1E28F0DB6B4DB2
:10466000002006EB841100BF01EB400231F910403D
:1046700032F9402CA41A5C4302EB242225F81020C6
:10468000401C2028F0DB0BE42DE9F04160480124B8
:10469000604E047000253560192000F0A8F819203C
:1046A00000F08DF85C4F052038724FF41670FBF760
:1046B000F1FD584844380560FF21397034600460CA
:1046C00020E470B55248554C01250570207F40F01C
:1046D000040020775248006890F81101C00705D007
:1046E0000A2000F084F80A2000F069F8002184F81C
:1046F00060105B22A2761120E07684F86050572388
:10470000A376E076434B443B1960434EFF21317062
:10471000042184F86010A276E0761D6070BD70B54B
:104720003C480024443804603B4D08352E7919205C
:1047300000F051F8C6F1FB002978C0B2491CB0FB6B
:10474000F1F038490870324804703548006890F834
:104750001101C00702D0BDE87040B2E731495520D1
:10476000891E087070BD10B52C4C207F40F00400ED
:1047700020772B48006890F81101C00702D00A206A
:1047800000F029F824490A7B224B0020443B1860A2
:1047900084F860005B23A3761123E3760978891AF5
:1047A00089B24FF4FA42B2FBF1F11E4A0909521ED6
:1047B00011705521521E11701549087010BD00F07E
:1047C0001F020121914040094FF0E02202EB8000DE
:1047D000C0F80011704700F01F020121914040090C
:1047E0004FF0E02202EB8000C0F88011704700F02B
:1047F0001F020121914040094FF0E02202EB8000AE
:10480000C0F8801270470000E22901201E2A012012
:1048100090021000480500222E0000200010002009
:1048200038021000F4FF010010B501461822FE48BE
:10483000FEF799FF8021BDE810400120FBF71EBE66
:1048400030B599B004466846FEF7BCFF0021012C44
:1048500002D0022C02D008E0012000E008208DF8F0
:104860001210ADF800008DF81010BDF80200AFF284
:10487000470140F4A670EC4D0191ADF8020003240D
:104880006846FCF751FF17AB002280210120FBF79F
:1048900034FE80210120FBF720FE2878002804D078
:1048A000FEF73CF9641E002CEADC19B030BD2DE99E
:1048B000FC5F4FF0000BFEF717FD0446FEF736FDD8
:1048C000DA4907460020086048608860D8494FEA06
:1048D000540980460860486088604FF0010A022051
:1048E000FFF7AEFFD04800242646C068CDF8000090
:1048F0000AFA06F010EA090F38D000250AFA05F185
:10490000394230D0CB490AFA04F0096891F8E8112D
:10491000014228D029463046FEF74BFDC549C34A1F
:10492000096832F91430B1F80AC2B3EB0C01009BEC
:1049300033F91430A3EB0C0C00D54942BCF1000F45
:1049400001DACCF1000C614504DBB94922F81430DE
:1049500021F814003F2805D2401CC2B22946304637
:10496000FEF73DFD641C6D1C202DC7DB761C272E39
:10497000BEDBFDF7DFFB08F10108B8F1400FAEDB4D
:10498000012000900220FFF75BFFD0460026DFF8F1
:10499000A4A2354608FA05F010EA090F1ED000243B
:1049A00008FA04F1394216D0DAF8001008FA06F0D5
:1049B00091F8E81101420ED09D48214610F81600EA
:1049C000019002462846FEF70AFD01983F2801D3D0
:1049D00000200090761C641C202CE1DB6D1C272D30
:1049E000D8DB009810B90520FEF7BCF8FDF7A2FB54
:1049F0000220FFF725FF8C488F49C068FEF7B7FCFF
:104A0000DAF800408C4D002094F8E831424600BFAF
:104A100002FA00F10B421CD035F91010002902DC1B
:104A20004BF0020005E040F6FF76B14203DB4BF0AD
:104A30000100834610E0B4F80A72B4F8BE6107EBD7
:104A4000060C8C4505DABF1B8F4202DD0EB14BF020
:104A5000040B401C0628DBDB5846BDE8FC9F2DE913
:104A6000F05F74490A6892F83001050673480378CC
:104A700003F00F0407D492F83E1121F00F012143F7
:104A80000170BDE8F09F0025DFF89CA1834604700B
:104A90002E46012789460220FFF7D2FE6649DAF842
:104AA0000C00FEF764FCD9F80020634B002092F85C
:104AB000E81100BF07FA00FC11EA0C0F05D033F92A
:104AC00010C0B2F80882C445DBDB401C0628F1DBCD
:104AD0000F2D08D26D1CEDB244EA0510761C8BF840
:104AE0000000102ED7DBBDE8F05F0420FEF73AB8D7
:104AF000F0B54D4900204D684E490A68537D117D3F
:104B00005B1C01FB03F41CE035F91130002B02DCC7
:104B100040F0200014E040F6FF76B34202DB40F0A4
:104B200010000DE0B2F83471B2F8BE6107EB060C6C
:104B30009C4505DABF1B9F4202DD0EB140F04000EC
:104B4000491C8C42E0DCF0BD024618215FF00100F8
:104B500000FA01F3134201D1491EF9D5491C8840DE
:104B6000104370472DE9FE4FFEF714FC0446FEF794
:104B700017FC304D0746286890F84507000603D516
:104B80002046FFF7E1FF04464FEA540B4FF4F06173
:104B90002B480FF0EAF924484FF0270980211830FC
:104BA0000FF005FA002001900120FFF749FE1E4892
:104BB000D0F804A01F480068057D01200024029061
:104BC0006CE0012000FA04F111EA0B0F65D0002619
:104BD000012000FA06F818EA070F54D012481830DE
:104BE00050F8240010EA080F4CD131462046FEF759
:104BF000E0FB00900F483AF915100068B0F8340156
:104C0000814233DC0E4B33F91520121AA1EB000060
:104C100000D55242002800DA4042824218DC009857
:104C2000401EC0B202460DE07843100080CE012045
:104C30008CCE0120380210003A2E0120F6FF010030
:104C400058D60120009031462046FEF7C8FB01E00F
:104C500023F815106C49009821F815006B4850F89E
:104C6000241041EA080140F824100BE00098314676
:104C7000401CC2B22046FEF7B2FB65483AF8151058
:104C800020F815106D1C761C202EA1DB5F4850F813
:104C90002400B84201D000200290641C4C4590DBF7
:104CA000029838B9FDF746FA0198401C0190402857
:104CB000FFF67AAF57484FF0010A00250068067DDD
:104CC0001DE0012202FA05F010EA0B0F16D00024B5
:104CD0000120A04038420ED04B48214610F8160063
:104CE000804602462846FEF77AFBB8F13F0F01D313
:104CF0004FF0000A761C641C202CE9DB6D1C4D452E
:104D0000DFDBBAF1000F02D10320FDF72BFFFDF727
:104D100011FA0120FFF794FDBDE8FE4FE8E62DE90A
:104D2000F05F3C4A116891F83001C4073A480378B3
:104D300003F0F00516D0057000264B7D0C7DDFF8E2
:104D4000CCA05B1CB046AAF1180A914604FB03F7FD
:104D500083460120FFF774FD2046DAF80420D9F8D5
:104D600000100EE091F83E1101F00F01294301708F
:104D700087E600BF32F91030B1F832C16345F7DB86
:104D8000401C8742F6DC0F2E0AD2761CF6B245EAAA
:104D9000060108F101088BF80010B8F1100FD8DBFC
:104DA000BDE8F05F0220FDF7DDBE70B501244FF4D1
:104DB00004614FF4F8300FF0FAF8FDF7BBF9FFF794
:104DC000AEFFFFF7CFFE134D44EA0064286890F869
:104DD000E80128B1FFF743FEFFF769FD44EA00440C
:104DE0000D482A68401D017892F8FB2701F0F00178
:104DF00002F00F02114301700848FEF743FB204602
:104E0000BDE8704006F03FB8D8DD012090431000A7
:104E100058D6012038021000F6FF010024241000AB
:104E20002DE9F04F0020FF4D04460246012140F6D7
:104E3000FF7BFD4BD5F814906E681B6801FA02F7F2
:104E400037421CD039F914A0BAF1000F02DC40F04F
:104E5000200013E0DA4502DB40F010000EE0B3F86A
:104E600036C1B3F84171E6460CEB0708D04503DBC9
:104E7000AEEB070CD44501DD40F04000641C521C31
:104E8000202ADBD30024AF69AE68224601FA02F57E
:104E900035421AD037F91450002D02DC40F02000C2
:104EA00012E05D4502DB40F010000DE0B3F83A81FE
:104EB000B3F8439108EB090CAC4503DBA8EB090CF4
:104EC000AC4501DD40F04000641C521C202ADDD3BB
:104ED000BDE8F08F10B501461822D448FEF743FC18
:104EE0008021BDE810400120FBF7C8BA30B599B069
:104EF0006846FEF767FCCC48006890F809178907F8
:104F000007D5B0F85C17B0F86427ADF83010ADF8ED
:104F1000322090F80A074FF00604C00709D0FEF7C8
:104F20004CFE012805D0BDF8020040F00200ADF8AB
:104F3000020000208DF83A008DF83900B948ADF82C
:104F40000040416849000A9180680B90BDF802005A
:104F5000AFF27F0140F4A670B44D0191ADF80200AC
:104F600003246846FCF7E0FB17AB002280210120F8
:104F7000FBF7C3FA80210120FBF7AFFA287800285D
:104F800004D0FDF7CBFD641E002CEADC19B030BD67
:104F90002DE9F84F2121A6480FF009F8A448302147
:104FA00021300EF0E2FFFDF792F9FDF730F9042011
:104FB00003254FF000084FF001099A4CDFF868A272
:104FC000CDF80000FFF792FFE8072BD04FF0000B61
:104FD0005F465E46616809FA06F008421AD040F65C
:104FE000AC013046FEF717FA616931F91720DAF89B
:104FF0000010B1F845118A420BDA3F2809D2009916
:105000004FF0010B0844C1B240F6AC023046FEF747
:1050100017FA7F1C761C202EDCD3BBF1000F01D1C8
:1050200025F00105A8072BD54FF0000B5F465E4623
:10503000A16809FA06F008421AD040F6CD013046C0
:10504000FEF7E9F9A16931F91720DAF80010B1F893
:1050500047118A420BDA3F2809D200994FF0010B21
:105060000844C1B240F6CD023046FEF7E9F97F1C94
:10507000761C202EDCD3BBF1000F01D125F00205F8
:1050800045B1FDF724F9FDF7C2F808F10108B8F1C0
:10509000640F97DB03254FF0000800BFFFF726FFE2
:1050A000E80729D04FF0000B5F465E46616809FAB9
:1050B00006F0084218D040F6AC013046FEF7ABF9D6
:1050C000616931F91720DAF80010B1F845118A4208
:1050D00009DD40B1401EC1B24FF0010B40F6AC02F9
:1050E0003046FEF7ADF97F1C761C202EDED3BBF1D7
:1050F000000F01D125F00105A80729D54FF0000BBD
:105100005F465E46A16809FA06F0084218D040F6EC
:10511000CD013046FEF77FF9A16931F91720DAF8A1
:105120000010B1F847118A4209DD40B1401EC1B2FA
:105130004FF0010B40F6CD023046FEF781F97F1C9F
:10514000761C202EDED3BBF1000F01D125F0020525
:10515000002D08D0FDF7BBF8FDF759F808F101085C
:10516000B8F1640F9ADBBDE8F88F2DE9F041314DBD
:105170000020212128702E480EF019FF2C483021E4
:1051800021300EF0F2FEFDF742F8FDF7A0F8254EB3
:10519000002700BFFFF7AAFED6E90432002420460C
:1051A00006E000BF32F91010A14200DD0C46401CA1
:1051B0009842F7DB0020F368B26905E032F910107D
:1051C000A14200DD0C46401C9842F7DB002C09DCB4
:1051D00028780F2803D8401C2870FDF778F87F1C2A
:1051E000202FD7DB40F6FE70844206DD2878401E73
:1051F0002870BDE8F041FDF76AB8BDE8F0812DE9FF
:10520000F05F084E00240A4FD6F804306C3F254664
:105210002146012000FA01F21A420ED07A5CA24225
:105220000BD909E0B402100038021000104410003D
:10523000ACF80100F5FF01001446491C2029E9D310
:10524000FD4FD6F80820002100FA01F3134203D0E5
:105250007B5CAB4200D91D46491C2029F4D3DFF802
:10526000DCA3F74F0AF1010B8AF800408BF80050DD
:10527000386890F80A07C10705D0800703D5FEF704
:105280007DFC012811D0ED48EC49801E491E0078B4
:10529000097820442944FF2288427AD2081A2044FF
:1052A000FF2877D88AF8000099E0E548006800F206
:1052B00059700279C17802F03F0201EB022682792F
:1052C000417902F03F0201EB0228027BC17A02F031
:1052D0003F0201EB0227827B417B007802F03F0214
:1052E00001EB022940060FD5D448801E017806EB59
:1052F000080004EB40000844D049491E0A7807EB37
:10530000090105EB410110E006EB0800400000EB4D
:105310004401CA48801E0078084407EB090149008F
:1053200001EB4502C549491E09781144FDF7B3FE5A
:10533000C349096801F20B72B1F80B37834201D2FD
:10534000A1F80B0791F80A07400720D591F85907F3
:10535000400620D570004342C8F1000091F80B17B9
:1053600003EB40000144B548801E0078091A8AF812
:10537000001078004142C9F1000001EB40001178B3
:105380000144AE48401E0078081A8BF80000BDE8C2
:10539000F09F27E01DE0A948B1F80B17801E0378A5
:1053A00006EB08001844404201EB4000C0F34701FF
:1053B000A2488AF80010401E017807EB0900084453
:1053C0001188404201EB4000C0F347018BF8001008
:1053D000DDE78AF80020306840F0800030608BF80C
:1053E0000050D4E781420FD2401A2844FF2802D847
:1053F0008BF8000005E08BF80020306840F080005A
:1054000030608AF80040C2E78AF80040E7E72DE9FB
:10541000F041894C00202C3C8A4B894A01210546E9
:105420005F6801FA00F63E4209D01768265C97F8DB
:105430004A71BE4202D9F61B265400E02554401C96
:105440002028EDD37C4C00209F6801FA00F63E42F4
:1054500009D01768265C97F84A71BE4202D9F61B3C
:10546000265400E02554401C2028EDD3FFF7C7FE4A
:10547000BDE8F041FCF706BF2DE9F84F6E486E4DD0
:105480002C3806462C210EF092FD402128460EF0C5
:105490008EFDFFF7B4FEFCF71AFFFCF7F3FE0420C5
:1054A000032400274FF00109DFF898A1DFF890B13D
:1054B000CDF80000FFF71AFDE00728D04FF0000CF0
:1054C000624660464FEA0A0309FA00F1D3F8048005
:1054D00011EA080F13D0596931F91280DBF8001076
:1054E000B1F83811884509DA315CDDF800804FF0F9
:1054F000010C4144FF2900DDFF213154521C401CA6
:105500002028E1D3BCF1000F01D124F00104A00751
:1055100027D54FF0000C62466046534609FA00F169
:10552000D3F8088011EA080F13D0996931F9128075
:10553000DBF80010B1F83C11884509DA295CDDF888
:1055400000804FF0010C4144FF2900DDFF21295468
:10555000521C401C2028E1D3BCF1000F01D124F0E3
:10556000020444B1FFF74BFEFCF7B1FEFCF78AFEE4
:105570007F1C642F9EDB03245FF00007FFF7B6FC5F
:10558000E00724D04FF0000E714670465246DC46CC
:10559000D2F8048009FA00F313EA080F0FD0536918
:1055A000DCF8008033F91130B8F83881434505DD67
:1055B000335C1BB15B1E4FF0010E3354491C401C81
:1055C0002028E5D3BEF1000F01D124F00104A0078B
:1055D00025D54FF0000E7146704652464FEA0B0C2F
:1055E000D2F8088009FA00F313EA080F0FD0936984
:1055F000DCF8008033F91130B8F83C81434505DD13
:105600002B5C1BB15B1E4FF0010E2B54491C401C40
:105610002028E5D3BEF1000F01D124F00204002CB4
:1056200008D0FFF7ECFDFCF752FEFCF72BFE7F1CC9
:10563000642FA3DB97E500006CF80100F9FF01007F
:1056400038021000B4021000B34930B409680020D9
:10565000034691F8302192070BD5B04A91F84941A1
:1056600001201578A54203D9A5EB0404147000E0CD
:10567000137091F8302152070CD5A84A91F84911BE
:10568000521C40F0020014788C4202D9611A117049
:1056900000E01370002801D030BCB0E530BC70478A
:1056A0002DE9F0479C4900249C4D0868274690F856
:1056B0003021920702D501242F7002E090F83F219B
:1056C0002A70894690F83011954E490703D544F069
:1056D0000204377002E090F840013070002C75D061
:1056E0002C2190480EF063FC8E4840212C300EF0A7
:1056F0005EFC8A482121801E07708A486C300EF0BB
:1057000056FC884830218D300EF02FFC8449FF2054
:10571000891C0870491E0870FCF7B4FDFCF777FD82
:10572000FCF7D5FDDFF800824FF0100A002700BF1C
:10573000FFF7DCFBE00723D0D8E9043C002001465A
:1057400006E000BF3CF91120824200DD1046491CF2
:105750009942F7DBD9F80010B1F83621824202DA1B
:105760002878401E08E0B1F84B11814206DB28780A
:105770005044FF2800DDFF20287001E024F00104E0
:10578000A00726D500200146D8F80CC0D8F818305C
:1057900006E000BF33F91120824200DD1046491CAB
:1057A0006145F7DBD9F80010B1F83A21824202DAFC
:1057B0003078401E08E0B1F84B11814207DB3078A9
:1057C0005044FF2800DDFF20307002E00AE024F0A2
:1057D0000204002C06D0FFF712FDFCF778FD7F1CB9
:1057E000202FA5DBBDE8F08770B54F4C002020606E
:1057F000FDF71EFD6060FDF747FDA06060680421B5
:1058000040086060201DFDF72FFC2061042104F199
:105810000800FDF729FCE060FFF768FB434E2169B3
:10582000B06800EB41026261E26802EB410100EB0B
:105830004100A061FFF734FFFFF706FF364D2868EF
:1058400090F83001800603D5FFF716FEFFF7DFFD65
:10585000286890F83001000701D5FFF786FC28681A
:1058600090F83001C00601D5FFF792FBFCF72FFD41
:10587000FFF73CFBB068216900EB41026261E2681E
:1058800002EB410100EB4100A061FFF7C9FA21687A
:105890000143234821602A68C01C037892F8FB2743
:1058A00063F303020270BDE8704041F0020005F0AE
:1058B000EABA2DE9F041184C206890F809078007F2
:1058C00029D5FEF77AF9012825D12068A04600F2F3
:1058D0005C7004888178C07800F03F0001EB0025FF
:1058E0000F48401C0778801E0678FCF79BFBD8F811
:1058F0000010B1F8AC3791F80827B1F80B17234422
:10590000414391FBF2F02B4433443B440849C01A15
:105910002044C880088170E438021000F7FF0100BD
:10592000F8FF010040F80100B4021000104410001C
:105930003C25100010B501461822AD48FDF713FFB5
:105940008021BDE810400120FAF798BDF0B5A94EBE
:1059500005460C46306899B090F8B10000F00F0190
:10596000491C4FF0FF308840C7436846FDF72AFFC7
:105970000120ADF80000ADF80240306810F8F91FC2
:105980008DF8131044F00501ADF802100297ADF840
:105990001650AFF25F01019141788DF814108078B4
:1059A0008DF81A00944800785A2805D19248401C76
:1059B00000782844ADF816008D4D03246846FBF7A7
:1059C000B3FE17AB002280210120FAF796FD80215B
:1059D0000120FAF782FD2878002804D0FDF79EF810
:1059E000641E002CEADC19B0F0BD2DE9FC5FDFF885
:1059F00004A24FF000094E46DAF8000000F570707E
:105A0000017890F80180807801904FF00850D0F82C
:105A10008C0100B9012600208CB2009038E000BF54
:105A2000DAF8000090F8CD0300EB80004700002575
:105A300024E020460099FFF789FF6D48406809F08F
:105A4000C7F90146DAF8000090F8F82012F00F00CC
:105A500000D1012012094A43B2FBF0F01FFA80FB8B
:105A6000012E09D1B9F5707F06D2644A09F101000F
:105A700022F819B01FFA80F96D1CADB2BD42D8D919
:105A80005A462146302005F041FA0198204484B25C
:105A90004445C5DDBDE8FC9F2DE9FF5F4FF6FF766D
:105AA0004FF0000A93460F46804634465546DFF8CD
:105AB00044911BE038F815005146FFF747FF4C486A
:105AC000406809F085F9D9F8001091F8F82012F033
:105AD0000F0100D1012112094243B2FBF1F080B263
